:030000000201ED0D
:10000B000202C9BB010689828A83F0225002F722C1
:10001B00BBFE01F322EF8DF0A4A8F0CF8CF0A42847
:10002B00CE8DF0A42EFE22C2D5EC30E709B2D5E47A
:10003B00C39DFDE49CFCEE30E715B2D5E4C39FFFF6
:10004B00E49EFE120198C3E49DFDE49CFC80031228
:10005B00019830D507C3E49FFFE49EFE22E88FF0A2
:10006B00A4CC8BF0A42CFCE98EF0A42CFC8AF0ED34
:10007B00A42CFCEA8EF0A4CDA8F08BF0A42DCC38E8
:10008B0025F0FDE98FF0A42CCD35F0FCEB8EF0A420
:10009B00FEA9F0EB8FF0A4CFC5F02ECD39FEE43CDA
:1000AB00FCEAA42DCE35F0FDE43CFC2275F008757E
:1000BB008200EF2FFFEE33FECD33CDCC33CCC58298
:1000CB0033C5829BED9AEC99E58298400CF582EE54
:1000DB009BFEED9AFDEC99FC0FD5F0D6E4CEFBE43C
:1000EB00CDFAE4CCF9A88222B800C1B90059BA0004
:1000FB002DEC8BF084CFCECDFCE5F0CBF97818EF5F
:10010B002FFFEE33FEED33FDEC33FCEB33FB10D75F
:10011B0003994004EB99FB0FD8E5E4F9FA22781820
:10012B00EF2FFFEE33FEED33FDEC33FCC933C9107B
:10013B00D7059BE99A4007EC9BFCE99AF90FD8E0AD
:10014B00E4C9FAE4CCFB2275F010EF2FFFEE33FE7F
:10015B00ED33FDCC33CCC833C810D7079BEC9AE8F2
:10016B0099400AED9BFDEC9AFCE899F80FD5F0DA73
:10017B00E4CDFBE4CCFAE4C8F922E8600FECC3133E
:10018B00FCED13FDEE13FEEF13FFD8F122BC000BB9
:10019B00BE0029EF8DF084FFADF022E4CCF875F0B2
:1001AB0008EF2FFFEE33FEEC33FCEE9DEC98400591
:1001BB00FCEE9DFE0FD5F0E9E4CEFD22EDF8F5F057
:1001CB00EE8420D21CFEADF075F008EF2FFFED335F
:1001DB00FD4007985006D5F0F222C398FD0FD5F0DD
:1001EB00EA22787FE4F6D8FD758120020234020200
:1001FB00A2E493A3F8E493A34003F68001F208DF93
:10020B00F48029E493A3F85407240CC8C333C454D3
:10021B000F4420C8834004F456800146F6DFE48087
:10022B000B01020408102040809002E6E47E01934B
:10023B0060BCA3FF543F30E509541FFEE493A36059
:10024B00010ECF54C025E060A840B8E493A3FAE4B4
:10025B0093A3F8E493A3C8C582C8CAC583CAF0A305
:10026B00C8C582C8CAC583CADFE9DEE780BE7E0087
:10027B00120284C2A57F1E7E00D3EF9400EE940081
:10028B0040147D6E7C00ED1D70011CED4C70F7EF82
:10029B001F70E61E80E322E4F51EF51FD2907F143B
:1002AB007E00120284C290120280051FE51F7002AD
:1002BB00051EC394C8E51E6480948040DF22C0E015
:1002CB00C0D0850B8C850E8A0508E508C394644065
:1002DB0005750800D200D0D0D0E032C100010B0070
:0702EB00010E0001080000F4
:00000001FF
