:100443003F065B4F666D7D077F6F777C395E797101
:0C000E0001170A011D010125FF0112026B
:06040300D2A7C2A77F058D
:100409008F22E522D39400400A75247DD524FD1559
:040419002280EF222C
:09036300850D2FAB0EAD0AAF0CA5
:10036C00C2A6EF90044393F580D2A6C2A6C2A7758D
:10037C0080FE120403ED934480F580D2A6C2A675CC
:10038C0080FD120403EB93F580D2A6C2A67580FB08
:10039C00120403E52D934480F580D2A6C2A6758085
:1003AC00F7120403E52E93F580D2A6C2A67580EF52
:1003BC00120403E52F93F580D2A6C2A67580DFD276
:0803CC00A7C2A77F0502040986
:1003D40075B0FB85B0155315F0E51564F0601F7F0B
:1003E4000A120409E51564F0601485B015E51524B6
:0F03F40085600824C07007E4F51D22751D0122E5
:1001DB0075B0FE85B0155315F0E51564F0604C7FD6
:1001EB000A120409E51564F0604185B015E5152484
:1001FB0082602124C0601624E0600B24F0701AE4A6
:10020B00F517051680137517010516800C75170267
:10021B00051680057517030516E51564F0600A854C
:10022B00B0155315F0C2A680F0D2A675B0FD85B0FF
:10023B00155315F0E51564F0604C7F0A120409E5BF
:10024B001564F0604185B015E5152483602124C049
:10025B00601624E0600B24F0701A751704051680E5
:10026B00137517050516800C751706051680057591
:10027B0017070516E51564F0600A85B0155315F0E0
:10028B00C2A680F0D2A675B0FB85B0155315F0E56C
:10029B001564F060367F0A120409E51564F0602BD3
:1002AB0085B015E5152425600B24F0700C75170827
:1002BB00051680057517090516E51564F0600A85A6
:0C02CB00B0155315F0C2A680F0D2A62298
:10001E00758C4CE4F58AD2A9758911758D4CF58BCA
:10002E00D2ABD2AF1203D4E5237023E51224FE60C7
:10003E000F14601424037016752305751201800EBB
:10004E007523057512038006752305E4F512E51A6E
:10005E00641445197006F519F51A1523E52375F084
:10006E000A8485F027E52375F00A84F529E51260E8
:10007E002B24FD6013047032E52320E002D2A6E5A6
:10008E002330E026C2A68022E52320E004D290C2CF
:10009E0091E52330E014D291C290800EE52320E04A
:1000AE0002D2A6E52330E002C2A6E51D6401706E01
:1000BE00D28CD28EF516E51F6414451E7022F51EE5
:1000CE00F51F0526E526B43C17E4F5260521E521A6
:1000DE00B43C0DE4F5210528E528B41803E4F52811
:1000EE00E52875F00A8485F00AE52875F00A84F58E
:1000FE000CE52175F00A8485F00BE52175F00A8474
:10010E00F50EE52675F00A8485F00DE52675F00AE4
:10011E0084F50F850B2DF52E120363020032C28C6F
:10012E00C28E1201DBE517640A6078E51624FE60C4
:10013E0020146044146051146053146060240570E0
:10014E005FE517C39403500585170C805315168071
:10015E004FE50C70047F0180027F00E50CB40104B2
:10016E007E0180027E00EE4F60028007E517C39489
:10017E0005502D85170A8028E517C394075005856D
:10018E00170E801C1516801885170B8013E517C3E4
:10019E009407500585170F80071516800385170DD8
:1001AE0075170AE50F75F00AA4250DF526E50E75EF
:1001BE00F00AA4250BF521E50C75F00AA4250AF525
:0D01CE0028850B2D850F2E120363020032D1
:03000B0002041DCF
:10041D00C0E0758C4C758A00051FE51F7002051E26
:03042D00D0E032EA
:03001B00020430AC
:10043000C0E0758D4C758B00051AE51A7002051920
:03044000D0E032D7
:030000000202D722
:0C02D700787FE4F6D8FD75812F02031E2D
:1002E30002001EE493A3F8E493A34003F68001F213
:1002F30008DFF48029E493A3F85407240CC8C3331C
:10030300C4540F4420C8834004F456800146F6DFEA
:10031300E4800B010204081020408090000EE47E6C
:10032300019360BCA3FF543F30E509541FFEE493DF
:10033300A360010ECF54C025E060A840B8E493A3A6
:10034300FAE493A3F8E493A3C8C582C8CAC583CAD1
:10035300F0A3C8C582C8CAC583CADFE9DEE780BE89
:01001A0000E5
:00000001FF
