:10080000758901758C4CE4F58AD2A9D2AF120C7AA5
:10081000E52064017072D28CF51DE51B6414451A45
:100820007022F51AF51B0511E511B43C17E4F5111A
:100830000510E510B43C0DE4F5100512E512B418EE
:1008400003E4F512E51275F00A8485F009E51275E6
:10085000F00A84F50BE51075F00A8485F00AE510BE
:1008600075F00A84F50DE51175F00A8485F00CE544
:100870001175F00A84F50E850A26F527850C28AB3C
:100880000DAD09AF0B0209F7E52164016003020910
:1008900044C28C120A57E51E640A6078E51D24FEE6
:1008A0006020146044146051146053146060240587
:1008B000705FE51EC394035005851E0B8053151D04
:1008C000804FE50B70047F0180027F00E50BB401CF
:1008D000047E0180027E00EE4F60028007E51EC3A9
:1008E0009405502D851E098028E51EC394065005E9
:1008F000851E0D801C151D8018851E0A8013E51E9F
:10090000C394065005851E0E8007151D8003851EA5
:100910000C751E0AE50E75F00AA4250CF511E50DFF
:1009200075F00AA4250AF510E50B75F00AA425094F
:10093000F512850A26850E27850C28AB0DAD09AF6B
:100940000B120B53E522640160030209FAC28C8585
:100950001626851527851428AB17AD18AF19120B6D
:1009600053120A57E51E640A607BE51D24FE6020D1
:100970001460471460541460561460632405706258
:10098000E51EC394035005851E198056151D80521F
:10099000E50B70047F0180027F00E50BB401047E4B
:1009A0000180027E00EE4F6005851E188034E51E32
:1009B000C39405502D851E098028E51EC39406505A
:1009C00005851E17801C151D8018851E168013E5D1
:1009D0001EC394065005851E158007151D800385CE
:1009E0001E14751E0A751F01851626851527851488
:1009F00028AB17AD18AF19120B53E51FB40120E552
:100A00000BB5191BE509B51816E50DB51711E50A63
:100A1000B5160CE50EB51507E50CB51402C2A3E535
:100A20000B65197026E509B51821E50DB5171CE50C
:100A3000162401FFE433FEE50AB5070FE4B5060B03
:100A4000E50EB51506E50C65146007E51F600302A9
:070A5000080DD2A302080DFE
:03000B00020CF7ED
:100CF700C0E0758C4C758A00051BE51B7002051A50
:030D0700D0E03207
:100D0A003F065B4F666D7D077F6F777C395E797131
:100B53008D248B25C2A6EF900D0A93F580D2A6C2F1
:100B6300A6C2A77580FED2A7C2A77F05120CE3E534
:100B730024900D0A934480F580D2A6C2A67580FD09
:100B8300D2A7C2A77F05120CE3E525900D0A93F5C2
:100B930080D2A6C2A67580FBD2A7C2A77F05120C7E
:100BA300E3E526900D0A934480F580D2A6C2A6758C
:100BB30080F7D2A7C2A77F05120CE3E527900D0AA1
:100BC30093F580D2A6C2A67580EFD2A7C2A77F05F0
:100BD300120CE3E528900D0A93F580D2A6C2A67500
:0B0BE30080DFD2A7C2A77F05020CE351
:100CE3008F29E529D39400400A752A7DD52AFD155D
:040CF3002980EF2243
:060D1A00011E0A01200188
:100C7A0075B0FB85B01C531CF0E51C64F060287F3E
:100C8A000A120CE3E51C64F0601D85B01CE51C2407
:100C9A0085600C24C07010E4F52075210180087568
:100CAA002001E4F521F52275B0F785B01C531CF03C
:100CBA00E51C64F060227F0A120CE3E51C64F06014
:100CCA001785B01CE51C2429600B24F0700AE4F592
:090CDA002075220122E4F51F221D
:100A570075B0FE85B01C531CF0E51C64F0604C7F3C
:100A67000A120CE3E51C64F0604185B01CE51C2408
:100A770082602124C0601624E0600B24F0701AE421
:100A8700F51E051D8013751E01051D800C751E02C0
:100A9700051D8005751E03051DE51C64F0600A85AC
:100AA700B01C531CF0C2A380F0D2A375B0FD85B073
:100AB7001C531CF0E51C64F0604C7F0A120CE3E544
:100AC7001C64F0604185B01CE51C2483602124C0B0
:100AD700601624E0600B24F0701A751E04051D8053
:100AE70013751E05051D800C751E06051D800575F1
:100AF7001E07051DE51C64F0600A85B01C531CF039
:100B0700C2A380F0D2A375B0FB85B01C531CF0E5DF
:100B17001C64F060367F0A120CE3E51C64F0602B5E
:100B270085B01CE51C2425600B24F0700C751E088D
:100B3700051D8005751E09051DE51C64F0600A8505
:0C0B4700B01C531CF0C2A380F0D2A3220B
:03000000020BEE02
:0C0BEE00787FE4F6D8FD75812A020C35F2
:100BFA00020800E493A3F8E493A34003F68001F209
:100C0A0008DFF48029E493A3F85407240CC8C333FB
:100C1A00C4540F4420C8834004F456800146F6DFCA
:100C2A00E4800B0102040810204080900D1AE47E33
:100C3A00019360BCA3FF543F30E509541FFEE493BF
:100C4A00A360010ECF54C025E060A840B8E493A386
:100C5A00FAE493A3F8E493A3C8C582C8CAC583CAB1
:100C6A00F0A3C8C582C8CAC583CADFE9DEE780BE69
:010D200000D2
:00000001FF
