:1000000002077E120ADC120B487F88120B937F4393
:10001000120B8212065E1205C67F0A7E00120ABE0D
:0200200080F16D
:100023000209520202CEE86480F8E933E833601132
:100033000460F0ED33EC337009E8FCE9FDEAFEEB14
:10004300FF220460DED3EB9FEA9EE99DE8C2E78CC2
:10005300F0C2F795F0400CE8CCF8E9CDF9EACEFA16
:10006300EBCFFB12029985D0F05804700320D5B36F
:10007300E80470075002B2D50202D892D5EC0460AE
:10008300F7E4CCC0E0C398F8603B94186008400DD7
:10009300D0E0FB0202B0E4FBFAC9FC8028E830E4BC
:1000A30006E4C9FBE4CAFCE830E305E4C9CACBFCB7
:1000B300E854076010F8C3E913F9EA13FAEB13FBEA
:1000C300EC13FCD8F130F52FC3E49CFCEF9BFFEE5F
:1000D3009AFEED99FDD0E0FBEF4E4D4C701222DB02
:1000E300030202D5EC2CFCEF33FFEE33FEED33FDC0
:1000F300ED30E7EB0202B0EF2BFFEE3AFEED39FDF8
:10010300D0E0FB50130BBB00030202D8ED13FDEE4E
:1001130013FEEF13FFEC13FC0202B0EC4D6011E889
:10012300497017ED33EC3304600DE4FCFFFEFD2250
:10013300E933E8330470F80202CE120299580460DE
:1001430009E4CC248150062850090202D828400330
:100153000202D5C0E0EB4A7044B98006D0E0FB024E
:1001630002C4EF4E701CBD8008EBFFEAFEE9FD8080
:10017300EBE98DF0A4FEE5F0020207E9CDF9EAFE12
:10018300EBFFEF89F0A4FCE5F0CE89F0A42EFFE4A9
:1001930035F0CD89F0A42DFEE435F08067EF4E7085
:1001A30005BD80D780C3EF8BF0A4ACF0EE8BF0A439
:1001B3002CFCE435F0F8EF8AF0A42CE5F038FCE4ED
:1001C30033CB8DF0A42CFCE5F03BF8EE8AF0A42CA5
:1001D300FCE5F038F8E433CF89F0A42CFCE5F038E3
:1001E300CF3400CE89F0A42FFFE5F03EFEE433C9FF
:1001F3008DF0A42EFEE5F039CD8AF0A42FFFE5F0B3
:100203003EFEE43DFD33D0E0FB50070BBB000F0285
:1002130002D8EC2CFCEF33FFEE33FEED33FD02028C
:10022300B075F020800E75F010800575F0087D0024
:100233007E007F003392D530D503120467EC334040
:1002430010EF33FFEE33FEED33FDEC33FCD5F0ED71
:1002530022E5F0247EA2D513CC92E7CDCEFF22ED8A
:10026300D2E7CD33EC3392D524814006E4FFFEFD83
:10027300FC22FCE4CFCECDCC24E0501174FF80ED02
:10028300C3CC13CCCD13CDCE13CECF13CF0470F08C
:1002930030D5DE020467E9D2E7C933E833F892D5F3
:1002A300EDD2E7CD33EC33FC5002B2D522EC30E78C
:1002B300100FBF000C0EBE00080DBD00040BEB6059
:1002C30014A2D5EB13FCED92E7FD2274FFFCFDFEB7
:1002D300FF22E480F8A2D574FF13FC7D80E480EF55
:1002E300E709F608DFFA8046E709F208DFFA803EFD
:1002F30088828C83E709F0A3DFFA8032E309F608EA
:10030300DFFA8078E309F208DFFA807088828C8351
:10031300E309F0A3DFFA806489828A83E0A3F60805
:10032300DFFA805889828A83E0A3F208DFFA804CDF
:1003330080D280FA80C680D4806980F280338010B6
:1003430080A680EA809A80A880DA80E280CA80331F
:1003530089828A83ECFAE493A3C8C582C8CCC58397
:10036300CCF0A3C8C582C8CCC583CCDFE9DEE78067
:100373000D89828A83E493A3F608DFF9ECFAA9F0E6
:10038300EDFB2289828A83ECFAE0A3C8C582C8CC3C
:10039300C583CCF0A3C8C582C8CCC583CCDFEADE55
:1003A300E880DB89828A83E493A3F208DFF980CCB7
:1003B30088F0EF60010E4E60C388F0ED2402B404B0
:1003C3000050B9F582EB2402B4040050AF23234557
:1003D300822390033373BB010689828A83E0225010
:1003E30002E722BBFE02E32289828A83E49322BBD3
:1003F300010CE58229F582E5833AF583E022500674
:10040300E92582F8E622BBFE06E92582F8E222E529
:100413008229F582E5833AF583E49322BB010689B9
:10042300828A83F0225002F722BBFE01F322C2D557
:10043300EC30E709B2D5E4C39DFDE49CFCEE30E764
:1004430015B2D5E4C39FFFE49EFE120475C3E49D79
:10045300FDE49CFC800312047530D507C3E49FFFC1
:10046300E49EFE22C3E49FFFE49EFEE49DFDE49C24
:10047300FC22BC000BBE0029EF8DF084FFADF022FF
:10048300E4CCF875F008EF2FFFEE33FEEC33FCEE0F
:100493009DEC984005FCEE9DFE0FD5F0E9E4CEFD02
:1004A30022EDF8F5F0EE8420D21CFEADF075F008D5
:1004B300EF2FFFED33FD4007985006D5F0F222C32E
:1004C30098FD0FD5F0EA22AB07AA06C3EA6480942D
:1004D300805010754B40EB1B70011A6303FF6302DE
:1004E300FF8003E4F54BAD03AC02EC1202298F3F0E
:1004F3008E3E8D3D8C3CE4FFFE7DC87C40AB3FAA25
:100503003EA93DA83C12011EE4FBFAF9783F120014
:100513002D120262AA06AB077C277D10AF03AE0241
:1005230012043174DF2FF582740B3EF583E493F5E7
:100533004C7C277D10AF03AE021204317E037FE8AB
:10054300CFCDCFCECCCE12043174DF2FF582740B16
:100553003EF583E493F54D7C037DE8AF03AE0212D1
:1005630004317E007F64CFCDCFCECCCE1204317464
:10057300DF2FF582740B3EF583E4934480F54E7CC4
:10058300007D64AF03AE021204317E007F0ACFCD3B
:10059300CFCECCCE12043174DF2FF582740B3EF52F
:1005A30083E493F54F7C007D0AAF03AE021204315E
:1005B30074DF2DF582740B3CF583E493F550AE02A2
:1005C300AF03227FA4120B2FAB07AA067C037DE89F
:1005D300120431EF2430F5307C037DE8AF03AE0223
:1005E3001204317E007F64CFCDCFCECCCE12043146
:1005F300EF2430F5317C037DE8AF03AE0212043102
:100603007E007F64CFCDCFCECCCE1204317E007F6F
:100613000ACFCDCFCECCCE120431EF2430F532AE9B
:1006230002AF037C037DE81204317E007F64CFCDEB
:10063300CFCECCCE1204317E007F0ACFCDCFCECC2D
:10064300CE120431ED2430F5337B007A0079281281
:100653000B157B007A00792802080A120B61120439
:10066300CAAB07AA067C277D10120431EF2430F5AC
:10067300207C277D10AF03AE021204317E037FE896
:10068300CFCDCFCECCCE120431EF2430F5217C0375
:100693007DE8AF03AE021204317E007F64CFCDCF7D
:1006A300CECCCE120431EF2430F52275232E7C00FC
:1006B3007D64AF03AE021204317E007F0ACFCDCF3B
:1006C300CECCCE120431EF2430F524AE02AF037C3E
:1006D300007D0A120431ED2430F5257B007A007980
:1006E30018120B157B007A0079180206F08B3C8AEE
:1006F3003D893E783F7C007D007BFF7A0B79D27E7B
:10070300007F061203B3E4FBFAEB2480FF120B9382
:10071300743F2BF8E6FF120B820BBB00010AEB645C
:10072300054A70E57F85120B937F20120B827F862B
:10073300120B93900009120B787F87120B93900092
:100743000A120B787F88120B93AB3CAA3DA93E900B
:10075300000B120B7E7F89120B93AB3CAA3DA93E83
:1007630090000C120B7E7F90120B93AB3CAA3DA919
:100773003E90000D1203F2FF020B82787FE4F6D85D
:10078300FD7581520207C5020003E493A3F8E493C5
:10079300A34003F68001F208DFF48029E493A3F871
:1007A3005407240CC8C333C4540F4420C8834004E3
:1007B300F456800146F6DFE4800B010204081020A2
:1007C3004080900A4EE47E019360BCA3FF543F3007
:1007D300E509541FFEE493A360010ECF54C025E046
:1007E30060A840B8E493A3FAE493A3F8E493A3C8FE
:1007F300C582C8CAC583CAF0A3C8C582C8CAC5838F
:10080300CADFE9DEE780BE8B3C8A3D893E783F7CC8
:10081300007D007BFF7A0B79D87E007F071203B33C
:10082300E4F546F547120B8C743F2547F8E6FF12B3
:100833000B820547E54770020546C39406E54694D7
:100843000040E2C3E5479409E54694005022120BA9
:100853008CAB3CAA3DA93EE5472403FFE435468F14
:1008630082F583120B7E0547E54770D7054680D393
:1008730022E50864247056E51664237050E50924C4
:10088300D07048E50A24CF70407BFF7A0B79AD1214
:1008930009F85033E51024D0702BE51124CF600301
:1008A30004C3227A0B79B21209905001227A0B7990
:1008B300B6120990500D7BFF7A0B79BA120B15B261
:1008C300A5D322C322C322C322C322C322C322121B
:1008D3000A9A7F017E00120ABE7FCCE4FBFAC2B7FC
:1008E300053EE53E7002053DEF1392B7753D007579
:1008F3003E06E53E153EAC3D7002153D4C70F3D20D
:10090300B7EFC313FF0BBB00010AEB64084A70CEB9
:10091300227D087C00C2B70FBF0000D2B70FBF0013
:10092300000FBF0000A2B7E433C43333335480FB5A
:10093300E9C3134BF97E007F04EF1FAA0670011E63
:100943004A70F6ED1D70011CED4C70C9AF0122C059
:10095300E0C083C082C0D075D000C000C001C00217
:10096300C003C005C006C0071209CA5005120874A7
:100973008002B2A0C298D007D006D005D003D0021F
:10098300D001D000D0D0D082D083D0E0327BFF7DA5
:10099300037F0A8F388B398A3A893BE4FFEFC39D83
:1009A3005023AB39AA3AA93B8F827583001203F215
:1009B300FEE5382F2408F8E6B50603D38001C340CB
:1009C30001220F80D8D3227B007A007908E4FFE567
:1009D3009912041FE4FEC298C3EF6480948E5013EF
:1009E3000F740129F9E43AFA2098E40EEED39482C5
:1009F30040F622D3228B388A39893AE4FFAB38AAEE
:100A030039A93A8F827583001203F2FE740C2FF812
:100A1300E6B50603D38001C34001220FBF04DED332
:100A230022C2A58F807F017E00120A35D2A77F05DF
:100A33007E00D3EF9400EE9400400F7DC77C01DC71
:100A4300FEDDFAEF1F70EB1E80E822014A0010184A
:100A53002430325F54656D705858585858582300E5
:100A630010282430325F50726164585858585858CF
:100A7300230000E4FFFEC2B6FDFCEF25E0FFEE33EA
:100A8300FED2B6C2B6A2B7E43342070DBD00010CD5
:100A9300ED640C4C70E422C2B77B46AF031BEF70CE
:100AA300FAD2B7FB30B7117F017E00120ABE0BEBFF
:100AB300D3940540EF7F00227F0122D3EF9400EE11
:100AC300940040147D6E7C00ED1D70011CED4C7094
:100AD300F7EF1F70E61E80E3227598504389205379
:100AE30089EF758DFA758BFA438780D28EC299C2CE
:100AF30098D2ACD2AF22C2B6E4FEEFC413131354A0
:100B03000124FF92B4EF25E0FFC2B6D2B60EBE08B1
:100B1300E922C2AC1203D96010F5993099FDC2994C
:100B2300740129F9E43AFA80EBD2AC22C2B6C2B519
:100B3300120AF97F06DFFED2B60000C2B600001229
:100B43000A76D2B5227F38120B937F0C120B937F58
:100B530006120B937F01120B937F80020B93E4FF2A
:100B6300FE120B9D120BA51209148F3C120914EFF0
:100B7300FEE53CFF22AB3CAA3DA93E1203F2FFC2B5
:100B8300A7D2A6120A24C2A722E54724404480FF25
:100B9300C2A7C2A6120A24C2A7221208D27F440205
:100BA30008DE1208D27FBE0208DE4C696774004F6C
:100BB3006666004F6E5F00726563656976656420E3
:100BC3007269676874206C656435206F6E0A00541F
:100BD300656D703A006C696768743A003F065B4F55
:060BE300666D7D077F6FC7
:00000001FF
