:0300000002031EDA
:0C031E00787FE4F6D8FD75810E020365BF
:10001600C0F9A4B0999282F880908883C6A1868E92
:100026008FFA15FA67FB04FB90FC0CFC44FCACFD54
:1000360009FD34FD82FDC8FE06FE22FE56FE85FE43
:100046009A122234847454384232224234847282A0
:1000560094A80832312132523231213262323121B2
:100066003282718171513222323121325232312142
:10007600326232312132838271720263A1A26292AC
:100086008252315163516351635162827C026171C4
:10009600827162A2717661718271625231366171CA
:1000A600827162A373625342638383919161718209
:1000B6007162A271766171827162523136617182AA
:1000C6007162A373625342828802749389FF12128B
:1000D60022323122212221315152315261151451DD
:1000E600523152621311133228082831323132113B
:1000F6002151525152515131323132817263627102
:10010600817261615231213251542212111211123F
:100116001214263226326151513131213151615149
:100126003151023281818181625234318181816112
:1001360091825151515131615321112111221121C5
:100146002632615151313121315161513151523192
:100156003181818161918161315632328181818122
:1001660091816181615131513421315131211161C6
:100176002116FF5432523254625232625414122201
:1001860034523202325852526252325452625282BF
:10019600625814523222122432540222341F180496
:1001A60054A492816252546264526281A2829C0279
:1001B60052A4928162525462645264A2929FA492A3
:1001C60081625254846252322214042232585804F4
:1001D60052628FFF121422325432847262540262C7
:1001E60062525412223228121422325432849282DB
:1001F600543224216154223212182224122411214D
:1002060034322131341222222211212264525232F6
:10021600383152515231515831828182316168628E
:1002260062625161646182619C52A492A4328472BA
:10023600646294829461819291919281A1A2929436
:1002460052A492A432847264526281818292A294F0
:1002560082728288FFFFFFFC8EFCEDFD43FD6AFD86
:10026600B3FDF3FE2DFE47FE76FEA1FEC7FED9FEC8
:03027600F9FF1677
:03000600010B00EB
:10058000AD071FED600BE4FEEEC3947850F20E80D1
:01059000F773
:010591002247
:1003AA0075900F7F02120580E590640F24FE60109D
:1003BA0024FE601024FC601024077041E4FC800ACB
:1003CA007C0180067C0280027C037590F07F021219
:1003DA000580E590C4540F640F24FE600E24FE606D
:1003EA001024FC601224077014801074042CFC8002
:0D03FA000A74082CFC8004740C2CFC8C0A86
:0104070022D2
:10045B007580BFC2A0E4F50BD2AFD2A8D288D2AAC6
:10046B00D28A758901F58CF58AD2A9E50B600A123F
:10047B0002797FE87E03120562E50B70EE1203AA88
:10048B007590F0E59064F0600AE50A90001693F51C
:10049B0080D28CE590B4F002C28C7F021205808072
:0104AB00CA86
:030003000204F9FB
:1004F900C0E0C0F0C083C082C0D075D000C000C0C9
:1005090001C002C003C004C005C006C007C2AF7F56
:10051900F47E0112056220B205750B00C28CD2AFC0
:10052900D007D006D005D004D003D002D001D00026
:0B053900D0D0D082D083D0F0D0E032D0
:03001300020408DC
:10040800C0E0C0F0C083C082C0D075D000C000C0BA
:1004180001C002C003C004C005C006C007C28C7F6B
:10042800F47E0112056220B30F750C00050BB28C27
:10043800E50BB40503750B00D007D006D005D00432
:10044800D003D002D001D000D0D0D082D083D0F059
:03045800D0E032BF
:03000B000204AC40
:1004AC00C0E0C083C082C0D075D000C004C005C0FD
:1004BC0007E50B701DE50A25E02427F582E43400DE
:1004CC00F583E493FC740193FDECF58CAF058F8AF6
:1004DC00B295E50B600885088C85098AB295D00722
:0D04EC00D005D004D0D0D082D083D0E03233
:10027900E4F50CE50B7003020319B4010BE50C90CE
:1002890000D493750D00F50EE50BB4020BE50C9047
:10029900004793750D00F50EE50BB4030BE50C90C3
:1002A900017993750D00F50EE50BB4040BE50C907F
:1002B90001DA93750D00F50EE50EF4450D6051E573
:1002C9000DC4F854F0C8E50EC4540F48FF60212549
:1002D900E0245BF582E43402F583E493F508EF2525
:1002E900E0245CF582E43402F583E493F5098004A3
:1002F900C28CD2957E00E50E540FFF120544C28CC4
:10030900D2957F0A7E00120562D28C050C02027C0E
:04031900C28CD2952B
:01031D0022BD
:10054400D3EF9400EE940040147D387C4AED1D7086
:0D055400011CED4C70F7EF1F70E61E80E3F8
:010561002277
:10056200D3EF9400EE940040147D707C00ED1D707A
:0D057200011CED4C70F7EF1F70E61E80E3DA
:01057F002259
:10059200E4FBB2957F017E001205620BBB32F3D2FF
:0105A20095C3
:0105A3002235
:10032A0002045BE493A3F8E493A34003F68001F28A
:10033A0008DFF48029E493A3F85407240CC8C333D4
:10034A00C4540F4420C8834004F456800146F6DFA3
:10035A00E4800B0102040810204080900006E47E2D
:10036A00019360BCA3FF543F30E509541FFEE49398
:10037A00A360010ECF54C025E060A840B8E493A35F
:10038A00FAE493A3F8E493A3C8C582C8CAC583CA8A
:10039A00F0A3C8C582C8CAC583CADFE9DEE780BE42
:0100090000F6
:00000001FF
