:030000000200DB20
:0C00DB00787FE4F6D8FD75812002012238
:1001BF003F065B4F666D7D077F6F777C395E797188
:0801CF00C100010EFF0108014F
:100198008F0BE50BD39400400A750C7DD50CFD152B
:0401A8000B80EF22B7
:10016700C2A6EF9001BF93F580D2A6C2A6C2A7751B
:1001770080FED2A7C2A77F057E00120198ED93F5F6
:1001870080D2A6C2A67580FDD2A7C2A77F050201AD
:0101970098CF
:10000E00758901D28C758C4CE4F58AD2A9D2AF20B9
:10001E00B6107F647E00120198E4F50D750801306C
:10002E00B6FD20B7127F647E00120198E4F50D75BF
:10003E00080230B7FDB200E50D703020002D050826
:10004E00E50875F0038485F008E50814600F146068
:10005E001424027016750D05E4F508800E750D0555
:10006E007508018006750D05750802E50A641445CC
:10007E00097006F509F50A150DE50D75F00A84856A
:10008E00F00FE50D75F00A84F510200006AD0FFF98
:10009E00120167E50814601414601824026003024C
:1000AE00001DE4F590C291C29002001DD290C29143
:1000BE0002001DE50D20E005E4F590D2A3E50D202C
:0D00CE00E00302001D7590FFC2A302001D9B
:03000B000201AC43
:1001AC00C0E0758C4C758A00050AE50A70020509D9
:0301BC00D0E0325E
:1000E70002000EE493A3F8E493A34003F68001F221
:1000F70008DFF48029E493A3F85407240CC8C3331A
:10010700C4540F4420C8834004F456800146F6DFE8
:10011700E4800B01020408102040809001CFE47EA8
:10012700019360BCA3FF543F30E509541FFEE493DD
:10013700A360010ECF54C025E060A840B8E493A3A4
:10014700FAE493A3F8E493A3C8C582C8CAC583CACF
:10015700F0A3C8C582C8CAC583CADFE9DEE780BE87
:0101D7000027
:00000001FF
