:0300000002038177
:10000B00020628BB010689828A83E0225002E7227E
:10001B00BBFE02E32289828A83E49322BB01068919
:10002B00828A83F0225002F722BBFE01F322EF8D6E
:10003B00F0A4A8F0CF8CF0A428CE8DF0A42EFE2235
:10004B00C2D5EC30E709B2D5E4C39DFDE49CFCEED0
:10005B0030E715B2D5E4C39FFFE49EFE1201D0C377
:10006B00E49DFDE49CFC80031201D030D507C3E472
:10007B009FFFE49EFE22BB010A89828A83F0E5F092
:10008B00A3F0225006F709A7F01922BBFE06F3E5F1
:10009B00F009F31922E88FF0A4CC8BF0A42CFCE927
:1000AB008EF0A42CFC8AF0EDA42CFCEA8EF0A4CDEF
:1000BB00A8F08BF0A42DCC3825F0FDE98FF0A42C03
:1000CB00CD35F0FCEB8EF0A4FEA9F0EB8FF0A4CFB6
:1000DB00C5F02ECD39FEE43CFCEAA42DCE35F0FD67
:1000EB00E43CFC2275F008758200EF2FFFEE33FE27
:1000FB00CD33CDCC33CCC58233C5829BED9AEC99F5
:10010B00E58298400CF582EE9BFEED9AFDEC99FC96
:10011B000FD5F0D6E4CEFBE4CDFAE4CCF9A88222DD
:10012B00B800C1B90059BA002DEC8BF084CFCECDFD
:10013B00FCE5F0CBF97818EF2FFFEE33FEED33FD36
:10014B00EC33FCEB33FB10D703994004EB99FB0F1B
:10015B00D8E5E4F9FA227818EF2FFFEE33FEED33F2
:10016B00FDEC33FCC933C910D7059BE99A4007EC6A
:10017B009BFCE99AF90FD8E0E4C9FAE4CCFB2275B1
:10018B00F010EF2FFFEE33FEED33FDCC33CCC83345
:10019B00C810D7079BEC9AE899400AED9BFDEC9AA7
:1001AB00FCE899F80FD5F0DAE4CDFBE4CCFAE4C81F
:1001BB00F922E8600FECC313FCED13FDEE13FEEF19
:1001CB0013FFD8F122BC000BBE0029EF8DF084FF8A
:1001DB00ADF022E4CCF875F008EF2FFFEE33FEEC18
:1001EB0033FCEE9DEC984005FCEE9DFE0FD5F0E93F
:1001FB00E4CEFD22EDF8F5F0EE8420D21CFEADF03E
:10020B0075F008EF2FFFED33FD4007985006D5F042
:10021B00F222C398FD0FD5F0EA22C3E50D9418E541
:10022B000C648094804010E50D941AE50C64809466
:10023B00805004E4F98049C3E50D941AE50C648001
:10024B0094804010E50D941CE50C64809480500460
:10025B007901802CC3E50D941CE50C6480948040DF
:10026B0010E50D941EE50C64809480500479028097
:10027B000FC3E50D941EE50C648094804002790356
:10028B00E914602014603314604624037044E4FACC
:10029B00FBD2907F141205B10BBB00010AEB64C8B3
:1002AB004A70EE22E4FAFBD2907F1E1205B10BBB13
:1002BB0000010AEB64C84A70EE22E4FAFBD2907F8D
:1002CB00371205B10BBB00010AEB64C84A70EE2272
:1002DB00D290228B218A2289238C248D25E4F5262A
:1002EB00F527C3E52464809480501CC3E49525F561
:1002FB0025E49524F5240523E5237002052214F942
:10030B00742D1200270527AE24AF257C007D0A1221
:10031B00004BAF05AE26052674282EF8A607AE2493
:10032B00AF257C007D0A12004B8E248F25D3E5254B
:10033B009400E5246480948050CDE5262527F5278D
:10034B00AF261526D3EF64809480401D7428252694
:10035B00F8E62430FFAB210523E523AA2270020522
:10036B002214F9EF12002780D7AB21AA22A923E48C
:10037B00120027AF2722787FE4F6D8FD75812D0276
:10038B0003C80204F8E493A3F8E493A34003F680B4
:10039B0001F208DFF48029E493A3F85407240CC876
:1003AB00C333C4540F4420C8834004F45680014621
:1003BB00F6DFE4800B01020408102040809006CF8A
:1003CB00E47E019360BCA3FF543F30E509541FFE4C
:1003DB00E493A360010ECF54C025E060A840B8E4BD
:1003EB0093A3FAE493A3F8E493A3C8C582C8CAC540
:1003FB0083CAF0A3C8C582C8CAC583CADFE9DEE7D2
:10040B0080BE75240075231075220E752100E4FC47
:10041B00FDAB24AA23A922A8211200A0E47BE87A31
:10042B0003F9F812012B8F248E238D228C21C3E428
:10043B009524F524E49523F52374019522F522E404
:10044B009521F521E524240CF524E43523F523E44B
:10045B003522F522E43521F521AF24AE23AD22FC64
:10046B0078081201BD8F0B85240E5389F043890147
:10047B00850B8C850E8AD2A9D28C22E510AE0F7813
:10048B0004CEA2E713CE13D8F8F50D8E0C75090028
:10049B00E510540FF50A7B007A007912AD0DAC0C08
:1004AB001202DE8F11051174122FF8762EAE09AFE2
:1004BB000A7C007D0A1200397D1012004B8E098FC9
:1004CB000AEF2430FFAE11051174122EF8A607E5C2
:1004DB0011C39406500CAF11051174122FF876202E
:1004EB0080EDAF11051174122FF8E4F622D2AF7F15
:1004FB000A7E0012040D1206611206773003FDC24C
:10050B00037B007A00790F120559920030002E12EE
:10051B0004867BFF7A0679E6E4FDFF1205DA7BFFA2
:10052B007A0679F57D01E4FF1205DA7B007A007912
:10053B00127D017F0A1205DA120225800C7BFF7AED
:10054B00077900E4FDFF1205DA12066180AE120690
:10055B004592012001227FCC1206027FBE120602B9
:10056B00120587AC07120587EFFEAD047C00E42D66
:10057B00FFEC3E8FF0120081A201B322C2AF7D01CE
:10058B00ED601EC2B70000D2B7000020B705F452D1
:10059B00068003ED42067F061206DBED25E0FD80AB
:1005AB00DFD2AFAF06227E001205BCC2907F1E7E4B
:1005BB0000D3EF9400EE940040147D6E7C00ED1D93
:1005CB0070011CED4C70F7EF1F70E61E80E3228B61
:1005DB00218A22892312069DAB21AA22A92312006C
:1005EB000E60130523E5237002052214F912000E89
:1005FB00FF1206BF80E222AE07C2AF7D01ED601A8B
:10060B00C2B700005E7004C2B78002D2B77F061279
:10061B0006DBD2B7ED25E0FD80E3D2AF22C0E0C010
:10062B00D0850B8C850E8A0508E508C394644005BC
:10063B00750800D203D0D0D0E032C2AFC2B77F3240
:10064B001206DBD2B77F061206DBA2B7920230B7D7
:10065B00FDD2AFA20222120645920120010A7FCCE5
:10066B001206027F44120602A201B3227F38120641
:10067B00AF7F0C1206AF7F061206AF7F010206AFEB
:10068B007580FFC2A6D2A5D2A7AF80C2A7EF20E785
:10069B00F622ED7004AC078004EF2440FCEC4480A0
:1006AB00FF0206AFAE0712068BC2A6C2A58E80D282
:1006BB00A7C2A722AE0712068BD2A6C2A58E80D2E6
:1006CB00A7C2A722C103010B00010E000108000005
:1006DB000000000000000000DFF62257656C636F1E
:1006EB006D6520746F207573650043757272656E4E
:0C06FB007420543A006572726F72210086
:00000001FF
