:100000000203AF020526C288D2A8220205E3BB0183
:100010000689828A83E0225002E722BBFE02E322A5
:1000200089828A83E49322BB010689828A83F02233
:100030005002F722BBFE01F322EF8DF0A4A8F0CF0F
:100040008CF0A428CE8DF0A42EFE22C2D5EC30E791
:1000500009B2D5E4C39DFDE49CFCEE30E715B2D5B2
:10006000E4C39FFFE49EFE1201D0C3E49DFDE49C27
:10007000FC80031201D030D507C3E49FFFE49EFE4D
:1000800022BB010A89828A83F0E5F0A3F0225006A0
:10009000F709A7F01922BBFE06F3E5F009F31922D0
:1000A000E88FF0A4CC8BF0A42CFCE98EF0A42CFCFF
:1000B0008AF0EDA42CFCEA8EF0A4CDA8F08BF0A47D
:1000C0002DCC3825F0FDE98FF0A42CCD35F0FCEBDC
:1000D0008EF0A4FEA9F0EB8FF0A4CFC5F02ECD39A1
:1000E000FEE43CFCEAA42DCE35F0FDE43CFC227598
:1000F000F008758200EF2FFFEE33FECD33CDCC3309
:10010000CCC58233C5829BED9AEC99E58298400C70
:10011000F582EE9BFEED9AFDEC99FC0FD5F0D6E44E
:10012000CEFBE4CDFAE4CCF9A88222B800C1B90034
:1001300059BA002DEC8BF084CFCECDFCE5F0CBF995
:100140007818EF2FFFEE33FEED33FDEC33FCEB338D
:10015000FB10D703994004EB99FB0FD8E5E4F9FABB
:10016000227818EF2FFFEE33FEED33FDEC33FCC9A0
:1001700033C910D7059BE99A4007EC9BFCE99AF933
:100180000FD8E0E4C9FAE4CCFB2275F010EF2FFFA2
:10019000EE33FEED33FDCC33CCC833C810D7079B0C
:1001A000EC9AE899400AED9BFDEC9AFCE899F80F6F
:1001B000D5F0DAE4CDFBE4CCFAE4C8F922E8600F2C
:1001C000ECC313FCED13FDEE13FEEF13FFD8F12289
:1001D000BC000BBE0029EF8DF084FFADF022E4CC13
:1001E000F875F008EF2FFFEE33FEEC33FCEE9DECDC
:1001F000984005FCEE9DFE0FD5F0E9E4CEFD22ED22
:10020000F8F5F0EE8420D21CFEADF075F008EF2F6B
:10021000FFED33FD4007985006D5F0F222C398FD5C
:100220000FD5F0EA22E5294528607CC3E52694181D
:10023000E525648094805005E4F539806AC3E5269D
:100240009418E525648094804011E526941AE525EC
:10025000648094805005753901804CC3E526941A5A
:10026000E525648094804011E526941CE525648092
:1002700094805005753902802EC3E526941CE5252F
:10028000648094804011E526941EE5256480948066
:1002900050057539038010C3E526941EE52564805A
:1002A00094804003753904E53914601014602314F8
:1002B000603614605424047052C29022E4FAFBD2D7
:1002C000907F0A1206730BBB00010AEB64C84A70E8
:1002D000EE22E4FAFBD2907F1E1206730BBB0001E4
:1002E0000AEB64C84A70EE22E4FAFBD2907F4B7EA0
:1002F0000012067EC2907F197E0012067E0BBB00A4
:10030000010AEB64C84A70E322D290228B088A0962
:10031000890A8C0B8D0CE4F50DF50EC3E50B64809A
:100320009480501CC3E4950CF50CE4950BF50B057B
:100330000AE50A7002050914F9742D120027050E4A
:10034000AE0BAF0C7C007D0A12004BAF05AE0D0565
:100350000D740F2EF8A607AE0BAF0C7C007D0A12B1
:10036000004B8E0B8F0CD3E50C9400E50B6480944E
:100370008050CDE50D250EF50EAF0D150DD3EF64B4
:10038000809480401D740F250DF8E62430FFAB08E3
:10039000050AE50AAA097002050914F9EF120027F7
:1003A00080D7AB08AA09A90AE4120027AF0E227869
:1003B0007FE4F6D8FD7581390203F6020589E493DE
:1003C000A3F8E493A34003F68001F208DFF4802948
:1003D000E493A3F85407240CC8C333C4540F442037
:1003E000C8834004F456800146F6DFE4800B010226
:1003F000040810204080900774E47E019360BCA341
:10040000FF543F30E509541FFEE493A360010ECF73
:1004100054C025E060A840B8E493A3FAE493A3F89D
:10042000E493A3C8C582C8CAC583CAF0A3C8C5825D
:10043000C8CAC583CADFE9DEE780BE750B00750A4E
:100440001075090E750800E4FCFDAB0BAA0AA9099A
:10045000A8081200A0E47BE87A03F9F812012B8FB8
:100460000B8E0A8D098C08C3E4950BF50BE4950AF5
:10047000F50A74019509F509E49508F508E50B24DA
:100480000CF50BE4350AF50AE43509F509E43508FD
:10049000F508AF0BAE0AAD09FC78081201BD8F2438
:1004A000850B275389F043890185248C85278AD2BF
:1004B000A9D28C22E52BAE2A7804CEA2E713CE1364
:1004C000D8F8F5268E25752200E52B540FF5237BF1
:1004D000007A00792DAD26AC2512030C8F2C052C4B
:1004E000742D2FF8762EAE22AF237C007D0A1200E9
:1004F000397D1012004B8E228F23EF2430FFAE2C5B
:10050000052C742D2EF8A607E52CC39406500CAFCD
:100510002C052C742D2FF8762080EDAF2C052C7433
:100520002D2FF8E4F622C0E0C0D075D000C004C082
:1005300005C006C00775280075290020B00D7F642E
:100540007E0012067E75390130B0FD20B10D7F644A
:100550007E0012067E75390330B1FD20B31E7F6424
:100560007E0012067EE5396009753900C290C2A18D
:100570008007753904D290D2A130B3FDD007D006E0
:10058000D005D004D0D0D0E03212070612071CD21A
:10059000AF1200067F0A7E0012043B1202253003D0
:1005A000FAC2037B007A00792A12061B9200120419
:1005B000B47BFF7A07798FE4FDFF12069C7BFF7AFC
:1005C00007799E7D01E4FF12069C7B007A00792D5D
:1005D0007D017F0A12069C7F147E0012067E1207A0
:1005E0000680B8C0E0C0D0D2A0D2A1D2A2E539B472
:1005F0000102C2A0E539B40202C2A1E539B4030286
:10060000C2A285248C85278A0521E521C3946440F4
:1006100005752100D203D0D0D0E0321206EA920153
:100620002001227FCC1206C47FBE1206C4120649E6
:10063000AC07120649EFFEAD047C00E42DFFEC3E52
:100640008FF0120081A201B322C2AF7D01ED601EC6
:10065000C2B70000D2B7000020B705F452068003ED
:10066000ED42067F06120784ED25E0FD80DFD2AF64
:10067000AF06227E0012067EC2907F1E7E00D3EF60
:100680009400EE940040147D6E7C00ED1D70011C02
:10069000ED4C70F7EF1F70E61E80E3228B088A098D
:1006A000890A120742AB08AA09A90A12000E6013B0
:1006B000050AE50A7002050914F912000EFF120777
:1006C0006480E222AE07C2AF7D01ED601AC2B700BE
:1006D000005E7004C2B78002D2B77F06120784D2D0
:1006E000B7ED25E0FD80E3D2AF22C2AFC2B77F32C3
:1006F000120784D2B77F06120784A2B7920230B7DE
:10070000FDD2AFA202221206EA920120010A7FCC9A
:100710001206C47F441206C4A201B3227F38120716
:10072000547F0C1207547F061207547F01020754AE
:100730007580FFC2A6D2A5D2A7AF80C2A7EF20E7DF
:10074000F622ED7004AC078004EF2440FCEC4480FA
:10075000FF020754AE07120730C2A6C2A58E80D290
:10076000A7C2A722AE07120730D2A6C2A58E80D29A
:10077000A7C2A722C103012400012700022800010B
:10078000012100000000000000000000DFF62257F9
:10079000656C636F6D6520746F20757365004375BC
:1007A0007272656E7420543A006572726F72210025
:00000001FF
