:030000000204E80F
:10000B0002032E0202B6E86480F8E933E83360118C
:10001B000460F0ED33EC337009E8FCE9FDEAFEEB2C
:10002B00FF220460DED3EB9FEA9EE99DE8C2E78CDA
:10003B00F0C2F795F0400CE8CCF8E9CDF9EACEFA2E
:10004B00EBCFFB12028185D0F05804700320D5B39F
:10005B00E80470075002B2D50202C092D5EC0460DE
:10006B00F7E4CCC0E0C398F8603B94186008400DEF
:10007B00D0E0FB020298E4FBFAC9FC8028E830E4EC
:10008B0006E4C9FBE4CAFCE830E305E4C9CACBFCCF
:10009B00E854076010F8C3E913F9EA13FAEB13FB02
:1000AB00EC13FCD8F130F52FC3E49CFCEF9BFFEE77
:1000BB009AFEED99FDD0E0FBEF4E4D4C701222DB1A
:1000CB00030202BDEC2CFCEF33FFEE33FEED33FDF0
:1000DB00ED30E7EB020298EF2BFFEE3AFEED39FD28
:1000EB00D0E0FB50130BBB00030202C0ED13FDEE7F
:1000FB0013FEEF13FFEC13FC020298EC4D6011E8BA
:10010B00497017ED33EC3304600DE4FCFFFEFD2268
:10011B00E933E8330470F80202B612028158046026
:10012B0009E4CC248150062850090202C028400360
:10013B000202BDC0E0EB4A7044B98006D0E0FB027E
:10014B0002ACEF4E701CBD8008EBFFEAFEE9FD80B0
:10015B00EBE98DF0A4FEE5F00201EFE9CDF9EAFE43
:10016B00EBFFEF89F0A4FCE5F0CE89F0A42EFFE4C1
:10017B0035F0CD89F0A42DFEE435F08067EF4E709D
:10018B0005BD80D780C3EF8BF0A4ACF0EE8BF0A451
:10019B002CFCE435F0F8EF8AF0A42CE5F038FCE405
:1001AB0033CB8DF0A42CFCE5F03BF8EE8AF0A42CBD
:1001BB00FCE5F038F8E433CF89F0A42CFCE5F038FB
:1001CB00CF3400CE89F0A42FFFE5F03EFEE433C917
:1001DB008DF0A42EFEE5F039CD8AF0A42FFFE5F0CB
:1001EB003EFEE43DFD33D0E0FB50070BBB000F029E
:1001FB0002C0EC2CFCEF33FFEE33FEED33FD0202BD
:10020B009875F020800E75F010800575F0087D0054
:10021B007E007F003392D530D503120320EC3340A0
:10022B0010EF33FFEE33FEED33FDEC33FCD5F0ED89
:10023B0022E5F0247EA2D513CC92E7CDCEFF22EDA2
:10024B00D2E7CD33EC3392D524814006E4FFFEFD9B
:10025B00FC22FCE4CFCECDCC24E0501174FF80ED1A
:10026B00C3CC13CCCD13CDCE13CECF13CF0470F0A4
:10027B0030D5DE020320E9D2E7C933E833F892D553
:10028B00EDD2E7CD33EC33FC5002B2D522EC30E7A4
:10029B00100FBF000C0EBE00080DBD00040BEB6071
:1002AB0014A2D5EB13FCED92E7FD2274FFFCFDFECF
:1002BB00FF22E480F8A2D574FF13FC7D80E480EF6D
:1002CB00BC000BBE0029EF8DF084FFADF022E4CC17
:1002DB00F875F008EF2FFFEE33FEEC33FCEE9DECE0
:1002EB00984005FCEE9DFE0FD5F0E9E4CEFD22ED26
:1002FB00F8F5F0EE8420D21CFEADF075F008EF2F70
:10030B00FFED33FD4007985006D5F0F222C398FD60
:10031B000FD5F0EA22C3E49FFFE49EFEE49DFDE4CB
:10032B009CFC22C0E0C0D075D000C004C005C00644
:10033B00C007758C3C758AB00521AF2D7E00D3E5C7
:10034B00099FE5089E5005C2B402042CD3E5099F12
:10035B00E5089E4023EF2405FFE43EFED3E5099F0D
:10036B00E5089E5013E521B40404C2B48007E521CF
:10037B00B41402D2B402042CAF2D7E00EF2405FD81
:10038B00EE33FCD3E5099DE5089C402BEF240AFFD7
:10039B00EE33FED3E5099FE5089E501BE521B4081B
:1003AB0004C2B48010E521B41404C2B48007E52163
:1003BB00B41402D2B4806AAF2D7E00EF240AFDEE96
:1003CB0033FCD3E5099DE5089C4022EF240FFFEE9B
:1003DB0033FED3E5099FE5089E5012E521B40C04CA
:1003EB00C2B48007E521B41402D2B48034AF2D7EA1
:1003FB0000EF240FFDEE33FCD3E5099DE5089C408F
:10040B0025EF2414FFEE33FED3E5099FE5089E503C
:10041B0015E521B41004C2B48007E521B41402D24F
:10042B00B47521008013E52D2414FFE433FED3E5CE
:10043B00099FE5089E4002D2B4752100D007D00673
:10044B00D005D004D0D0D0E032758941758C3C7585
:10045B008AB0758D3C758AB0D2AFD2A9D2ABD28C93
:10046B00D28E1207577FC27E011206E31207577F07
:10047B00027E001206E3120574E42FF52FE434011B
:10048B00F52EFEAF2F7C007D641202CB8F30AE2E8B
:10049B00AF2F7C007D641202CBAA04AB057D0A7CD6
:1004AB0000AF03AE021202CB8F317D0A7C00AF038B
:1004BB00AE021202CB8D22E52D75F00A84F50DE507
:1004CB002D75F00A8485F00EAB22AD31AF301206DC
:1004DB002D1206867F027E001206E3808F787FE462
:1004EB00F6D8FD75813D02052F020454E493A3F861
:1004FB00E493A34003F68001F208DFF48029E49330
:10050B00A3F85407240CC8C333C4540F4420C88326
:10051B004004F456800146F6DFE4800B0102040828
:10052B001020408090071EE47E019360BCA3FF5413
:10053B003F30E509541FFEE493A360010ECF54C076
:10054B0025E060A840B8E493A3FAE493A3F8E493FE
:10055B00A3C8C582C8CAC583CAF0A3C8C582C8CA06
:10056B00C583CADFE9DEE780BE1205D27FBE120566
:10057B00E1120701AB07120701752B008F2CE52C3D
:10058B00752C00F52BAF03EF422CE4AC2BAD2C12EA
:10059B000211E4FBFA7980783D1201068F358E3417
:1005AB008D338C32E4FFFE7D207C41AB35AA34A920
:1005BB0033A832120106E4FBFAF9783F1200151248
:1005CB00024A8E2B8F2C221207361207487F017E90
:1005DB00001206E37FCCAD077B01ED139200EDC358
:1005EB0013FD30001DC290050BE50B7002050A05CB
:1005FB000BE50B7002050AD2907F047E0012076A8E
:10060B00801BC2907F047E0012076AD290050BE517
:10061B000B7002050A050BE50B7002050A0BBB09F3
:10062B00B922850E36850D378B388D398F3A75A0EB
:10063B00FFE53690077493F5808528A01207667541
:10064B00A0FFE53793F5808527A012076675A0FFFD
:10065B00E53893F5808525A012076675A0FFE5396F
:10066B0093F5808524A012076675A0FFE53A93F5F4
:10067B00808523A07F017E0002076A20B2197F05C7
:10068B007E001206E320B20A052DE52DB464037536
:10069B002D1920B21880FB20B3137F057E001206A4
:1006AB00E320B306D52D03752D1930B3FD22C2906F
:1006BB00050BE50B7002050AD290050BE50B7002DA
:1006CB00050A050BE50B7002050AA29092007F0844
:1006DB007E0012076AA20022EF1FAA0670011E4AB3
:1006EB006013E4FCFDC3ED947DEC940050EA0DBD6A
:1006FB0000010C80F022E4FD7C011206B9E433FF0B
:10070B00C43333335480FEEDC3134EFD0CBC09EAE6
:10071B00AF0522012D190823FEFDFBF7EFDFBF7F8D
:10072B000836000000000000000000C2907F5A7ED7
:10073B000012076AD2907F047E0002076A2090FDA8
:10074B00A290B340FB7F047E0002076A7F017E000C
:10075B001206E31205D27F440205E17F017E00EF12
:10076B001F70011E144E70F722BF86DBCFE6EDFD26
:03077B0087FFEF06
:00000001FF
