:100000000202DE020577D288D2A822020643BB0193
:100010000689828A83E0225002E722BBFE02E322A5
:1000200089828A83E49322BB010689828A83F02233
:100030005002F722BBFE01F322EF8DF0A4A8F0CF0F
:100040008CF0A428CE8DF0A42EFE22C2D5EC30E791
:1000500009B2D5E4C39DFDE49CFCEE30E715B2D5B2
:10006000E4C39FFFE49EFE1201D0C3E49DFDE49C27
:10007000FC80031201D030D507C3E49FFFE49EFE4D
:1000800022BB010A89828A83F0E5F0A3F0225006A0
:10009000F709A7F01922BBFE06F3E5F009F31922D0
:1000A000E88FF0A4CC8BF0A42CFCE98EF0A42CFCFF
:1000B0008AF0EDA42CFCEA8EF0A4CDA8F08BF0A47D
:1000C0002DCC3825F0FDE98FF0A42CCD35F0FCEBDC
:1000D0008EF0A4FEA9F0EB8FF0A4CFC5F02ECD39A1
:1000E000FEE43CFCEAA42DCE35F0FDE43CFC227598
:1000F000F008758200EF2FFFEE33FECD33CDCC3309
:10010000CCC58233C5829BED9AEC99E58298400C70
:10011000F582EE9BFEED9AFDEC99FC0FD5F0D6E44E
:10012000CEFBE4CDFAE4CCF9A88222B800C1B90034
:1001300059BA002DEC8BF084CFCECDFCE5F0CBF995
:100140007818EF2FFFEE33FEED33FDEC33FCEB338D
:10015000FB10D703994004EB99FB0FD8E5E4F9FABB
:10016000227818EF2FFFEE33FEED33FDEC33FCC9A0
:1001700033C910D7059BE99A4007EC9BFCE99AF933
:100180000FD8E0E4C9FAE4CCFB2275F010EF2FFFA2
:10019000EE33FEED33FDCC33CCC833C810D7079B0C
:1001A000EC9AE899400AED9BFDEC9AFCE899F80F6F
:1001B000D5F0DAE4CDFBE4CCFAE4C8F922E8600F2C
:1001C000ECC313FCED13FDEE13FEEF13FFD8F12289
:1001D000BC000BBE0029EF8DF084FFADF022E4CC13
:1001E000F875F008EF2FFFEE33FEEC33FCEE9DECDC
:1001F000984005FCEE9DFE0FD5F0E9E4CEFD22ED22
:10020000F8F5F0EE8420D21CFEADF075F008EF2F6B
:10021000FFED33FD4007985006D5F0F222C398FD5C
:100220000FD5F0EA22C3E50D9418E50C64809480A4
:100230004010E50D941AE50C648094805004E4F9B4
:100240008049C3E50D941AE50C648094804010E564
:100250000D941CE50C6480948050047901802CC3BB
:10026000E50D941CE50C648094804010E50D941E0F
:10027000E50C6480948050047902800FC3E50D94EE
:100280001EE50C6480948040027903E91460201418
:10029000603314604624037044E4FAFBD2907F0A72
:1002A0001205CC0BBB00010AEB64C84A70EE22E4D5
:1002B000FAFBD2907F1E1205CC0BBB00010AEB6447
:1002C000C84A70EE22E4FAFBD2907F371205CC0BBD
:1002D000BB00010AEB64C84A70EE22D29022787FFC
:1002E000E4F6D8FD75812D02032502045FE493A393
:1002F000F8E493A34003F68001F208DFF48029E4D8
:1003000093A3F85407240CC8C333C4540F4420C823
:10031000834004F456800146F6DFE4800B010204BA
:1003200008102040809006F6E47E019360BCA3FF95
:10033000543F30E509541FFEE493A360010ECF54EF
:10034000C025E060A840B8E493A3FAE493A3F8E4DE
:1003500093A3C8C582C8CAC583CAF0A3C8C582C84A
:10036000CAC583CADFE9DEE780BE8B238A248925DC
:10037000AB05AA04E4F526F5277C007D0AAF03AEA1
:100380000212004BAF05AE26052674282EF8A607EC
:100390007C007D0AAF03AE0212004BAA06AB07D366
:1003A000EB9400EA6480948050CFE5262527F5275A
:1003B000AF261526D3EF64809480401D742825262F
:1003C000F8E62430FFAB230525E525AA24700205B5
:1003D0002414F9EF12002780D7AB23AA24A925E41F
:1003E000120027AF272275260075251075240E757B
:1003F0002300E4FCFDAB26AA25A924A8231200A013
:10040000E47BE87A03F9F812012B8F268E258D24E0
:100410008C23C3E49526F526E49525F525740195EE
:1004200024F524E49523F523E526240CF526E4356C
:1004300025F525E43524F524E43523F523AF26AE50
:1004400025AD24FC78081201BD8F0B85260E53893B
:10045000F0438901850B8C850E8AD2A9D28C22E4C7
:10046000F521F522120006D2AF7F0AFE1203E61232
:10047000067C1206921206EA308D0AC28D758C4CEB
:10048000E4F58A050F3003F0C2037B007A0079108F
:10049000120549920030002E1204D77BFF7A0779AB
:1004A0000DE4FDFF1205F57BFF7A07791C7D01E461
:1004B000FF1205F57B007A0079137D017F0A120592
:1004C000F5120225800C7BFF7A077927E4FDFF12E5
:1004D00005F512067C80A1E511AE107804CEA2E7E6
:1004E00013CE13D8F8F50D8E0C750900E511540FD5
:1004F000F50A7B007A007913AD0DAC0C12036A8FFC
:1005000012051274132FF8762EAE09AF0A7C007D07
:100510000A1200397D1012004B8E098F0AEF243029
:10052000FFAE12051274132EF8A607E512C3940647
:10053000500CAF12051274132FF8762080EDAF1215
:10054000051274132FF8E4F62212066092012001BE
:10055000227FCC12061D7FBE12061D1205A2AC071B
:100560001205A2EFFEAD047C00E42DFFEC3E8FF0FF
:10057000120081A201B322C0E0C0D075D000C00437
:10058000C005C006C0077FE87E031205D720B2056C
:10059000B29030B2FDD007D006D005D004D0D0D074
:1005A000E032C2AF7D01ED601EC2B70000D2B700DD
:1005B0000020B705F452068003ED42067F061207BD
:1005C00002ED25E0FD80DFD2AFAF06227E001205EE
:1005D000D7C2907F647E00D3EF9400EE9400401465
:1005E0007D6E7C00ED1D70011CED4C70F7EF1F70EF
:1005F000E61E80E3228B238A2489251206B8AB23CA
:10060000AA24A92512000E60130525E52570020510
:100610002414F912000EFF1206DA80E222AE07C29D
:10062000AF7D01ED601AC2B700005E7004C2B780F2
:1006300002D2B77F06120702D2B7ED25E0FD80E3B4
:10064000D2AF22C0E0C0D0850B8C850E8A0508E5AC
:1006500008C394644005750800D203D0D0D0E032BE
:10066000C2AFC2B77F32120702D2B77F06120702AB
:10067000A2B7920230B7FDD2AFA202221206609258
:100680000120010A7FCC12061D7F4412061DA20123
:10069000B3227F381206CA7F0C1206CA7F061206E2
:1006A000CA7F010206CA7580FFC2A6D2A5D2A7AF33
:1006B00080C2A7EF20E7F622ED7004AC078004EFBC
:1006C0002440FCEC4480FF0206CAAE071206A6C214
:1006D000A6C2A58E80D2A7C2A722AE071206A6D2B6
:1006E000A6C2A58E80D2A7C2A722758901758C4C9F
:1006F000E4F58AD28C22C103010B00010E0001082F
:1007000000000000000000000000DFF62257656CCA
:10071000636F6D6520746F20757365004375727229
:0E072000656E7420543A006572726F7221008B
:00000001FF
