:1000000002077E120B2D120B997F88120BE47F439F
:10001000120BD312065E1205C67F647E00120B0F10
:0200200080F16D
:100023000208F50202CEE86480F8E933E833601190
:100033000460F0ED33EC337009E8FCE9FDEAFEEB14
:10004300FF220460DED3EB9FEA9EE99DE8C2E78CC2
:10005300F0C2F795F0400CE8CCF8E9CDF9EACEFA16
:10006300EBCFFB12029985D0F05804700320D5B36F
:10007300E80470075002B2D50202D892D5EC0460AE
:10008300F7E4CCC0E0C398F8603B94186008400DD7
:10009300D0E0FB0202B0E4FBFAC9FC8028E830E4BC
:1000A30006E4C9FBE4CAFCE830E305E4C9CACBFCB7
:1000B300E854076010F8C3E913F9EA13FAEB13FBEA
:1000C300EC13FCD8F130F52FC3E49CFCEF9BFFEE5F
:1000D3009AFEED99FDD0E0FBEF4E4D4C701222DB02
:1000E300030202D5EC2CFCEF33FFEE33FEED33FDC0
:1000F300ED30E7EB0202B0EF2BFFEE3AFEED39FDF8
:10010300D0E0FB50130BBB00030202D8ED13FDEE4E
:1001130013FEEF13FFEC13FC0202B0EC4D6011E889
:10012300497017ED33EC3304600DE4FCFFFEFD2250
:10013300E933E8330470F80202CE120299580460DE
:1001430009E4CC248150062850090202D828400330
:100153000202D5C0E0EB4A7044B98006D0E0FB024E
:1001630002C4EF4E701CBD8008EBFFEAFEE9FD8080
:10017300EBE98DF0A4FEE5F0020207E9CDF9EAFE12
:10018300EBFFEF89F0A4FCE5F0CE89F0A42EFFE4A9
:1001930035F0CD89F0A42DFEE435F08067EF4E7085
:1001A30005BD80D780C3EF8BF0A4ACF0EE8BF0A439
:1001B3002CFCE435F0F8EF8AF0A42CE5F038FCE4ED
:1001C30033CB8DF0A42CFCE5F03BF8EE8AF0A42CA5
:1001D300FCE5F038F8E433CF89F0A42CFCE5F038E3
:1001E300CF3400CE89F0A42FFFE5F03EFEE433C9FF
:1001F3008DF0A42EFEE5F039CD8AF0A42FFFE5F0B3
:100203003EFEE43DFD33D0E0FB50070BBB000F0285
:1002130002D8EC2CFCEF33FFEE33FEED33FD02028C
:10022300B075F020800E75F010800575F0087D0024
:100233007E007F003392D530D503120467EC334040
:1002430010EF33FFEE33FEED33FDEC33FCD5F0ED71
:1002530022E5F0247EA2D513CC92E7CDCEFF22ED8A
:10026300D2E7CD33EC3392D524814006E4FFFEFD83
:10027300FC22FCE4CFCECDCC24E0501174FF80ED02
:10028300C3CC13CCCD13CDCE13CECF13CF0470F08C
:1002930030D5DE020467E9D2E7C933E833F892D5F3
:1002A300EDD2E7CD33EC33FC5002B2D522EC30E78C
:1002B300100FBF000C0EBE00080DBD00040BEB6059
:1002C30014A2D5EB13FCED92E7FD2274FFFCFDFEB7
:1002D300FF22E480F8A2D574FF13FC7D80E480EF55
:1002E300E709F608DFFA8046E709F208DFFA803EFD
:1002F30088828C83E709F0A3DFFA8032E309F608EA
:10030300DFFA8078E309F208DFFA807088828C8351
:10031300E309F0A3DFFA806489828A83E0A3F60805
:10032300DFFA805889828A83E0A3F208DFFA804CDF
:1003330080D280FA80C680D4806980F280338010B6
:1003430080A680EA809A80A880DA80E280CA80331F
:1003530089828A83ECFAE493A3C8C582C8CCC58397
:10036300CCF0A3C8C582C8CCC583CCDFE9DEE78067
:100373000D89828A83E493A3F608DFF9ECFAA9F0E6
:10038300EDFB2289828A83ECFAE0A3C8C582C8CC3C
:10039300C583CCF0A3C8C582C8CCC583CCDFEADE55
:1003A300E880DB89828A83E493A3F208DFF980CCB7
:1003B30088F0EF60010E4E60C388F0ED2402B404B0
:1003C3000050B9F582EB2402B4040050AF23234557
:1003D300822390033373BB010689828A83E0225010
:1003E30002E722BBFE02E32289828A83E49322BBD3
:1003F300010CE58229F582E5833AF583E022500674
:10040300E92582F8E622BBFE06E92582F8E222E529
:100413008229F582E5833AF583E49322BB010689B9
:10042300828A83F0225002F722BBFE01F322C2D557
:10043300EC30E709B2D5E4C39DFDE49CFCEE30E764
:1004430015B2D5E4C39FFFE49EFE120475C3E49D79
:10045300FDE49CFC800312047530D507C3E49FFFC1
:10046300E49EFE22C3E49FFFE49EFEE49DFDE49C24
:10047300FC22BC000BBE0029EF8DF084FFADF022FF
:10048300E4CCF875F008EF2FFFEE33FEEC33FCEE0F
:100493009DEC984005FCEE9DFE0FD5F0E9E4CEFD02
:1004A30022EDF8F5F0EE8420D21CFEADF075F008D5
:1004B300EF2FFFED33FD4007985006D5F0F222C32E
:1004C30098FD0FD5F0EA22AB07AA06C3EA6480942D
:1004D300805010754B40EB1B70011A6303FF6302DE
:1004E300FF8003E4F54BAD03AC02EC1202298F410C
:1004F3008E408D3F8C3EE4FFFE7DC87C40AB41AA1D
:1005030040A93FA83E12011EE4FBFAF9783F12000E
:100513002D120262AA06AB077C277D10AF03AE0241
:1005230012043174A32FF582740C3EF583E493F522
:100533004C7C277D10AF03AE021204317E037FE8AB
:10054300CFCDCFCECCCE12043174A32FF582740C51
:100553003EF583E493F54D7C037DE8AF03AE0212D1
:1005630004317E007F64CFCDCFCECCCE1204317464
:10057300A32FF582740C3EF583E4934480F54E7CFF
:10058300007D64AF03AE021204317E007F0ACFCD3B
:10059300CFCECCCE12043174A32FF582740C3EF56A
:1005A30083E493F54F7C007D0AAF03AE021204315E
:1005B30074A32DF582740C3CF583E493F550AE02DD
:1005C300AF03227FA4120B80AB07AA067C037DE84E
:1005D300120431EF2430F5327C037DE8AF03AE0221
:1005E3001204317E007F64CFCDCFCECCCE12043146
:1005F300EF2430F5337C037DE8AF03AE0212043100
:100603007E007F64CFCDCFCECCCE1204317E007F6F
:100613000ACFCDCFCECCCE120431EF2430F534AE99
:1006230002AF037C037DE81204317E007F64CFCDEB
:10063300CFCECCCE1204317E007F0ACFCDCFCECC2D
:10064300CE120431ED2430F5357B007A00792A127D
:100653000B667B007A00792A02088B120BB2120414
:10066300CAAB07AA067C277D10120431EF2430F5AC
:10067300227C277D10AF03AE021204317E037FE894
:10068300CFCDCFCECCCE120431EF2430F5237C0373
:100693007DE8AF03AE021204317E007F64CFCDCF7D
:1006A300CECCCE120431EF2430F52475252E7C00F8
:1006B3007D64AF03AE021204317E007F0ACFCDCF3B
:1006C300CECCCE120431EF2430F526AE02AF037C3C
:1006D300007D0A120431ED2430F5277B007A00797E
:1006E3001A120B667B007A00791A0206F08B3E8A97
:1006F3003F894078417C007D007BFF7A0C79967EB0
:10070300007F061203B3E4FBFAEB2480FF120BE431
:1007130074412BF8E6FF120BD30BBB00010AEB6409
:10072300054A70E57F85120BE47F20120BD37F8689
:10073300120BE4900009120BC97F87120BE490009F
:100743000A120BC97F88120BE4AB3EAA3FA9409063
:10075300000B120BCF7F89120BE4AB3EAA3FA940DB
:1007630090000C120BCF7F90120BE4AB3EAA3FA973
:100773004090000D1203F2FF020BD3787FE4F6D80A
:10078300FD7581520207C5020003E493A3F8E493C5
:10079300A34003F68001F208DFF48029E493A3F871
:1007A3005407240CC8C333C4540F4420C8834004E3
:1007B300F456800146F6DFE4800B010204081020A2
:1007C3004080900A45E47E019360BCA3FF543F3010
:1007D300E509541FFEE493A360010ECF54C025E046
:1007E30060A840B8E493A3FAE493A3F8E493A3C8FE
:1007F300C582C8CAC583CAF0A3C8C582C8CAC5838F
:10080300CADFE9DEE780BEE50A64247079E518648F
:100813002370737BFF7A0C792F120B66E50B24D0C0
:100823007062E50C24CF705A7BFF7A0C7944120A6C
:1008330071504DE51224D07045E51324CF600304B5
:10084300C3227A0C7949120A0B50147F647E00127A
:100853000BEE7BFF7A0C794E120B66D2A1D3227A70
:100863000C7967120A0B50147F647E00120BEE7B27
:10087300FF7A0C796C120B66C2A1D322C322C32266
:10088300C322C322C322C3228B3E8A3F89407841BD
:100893007C007D007BFF7A0C799C7E007F0712032E
:1008A300B3E4F548F549120BDD74412549F8E6FF39
:1008B300120BD30549E54970020548C39406E54880
:1008C300940040E2C3E5499409E54894005022129C
:1008D3000BDDAB3EAA3FA940E5492403FFE43548BD
:1008E3008F82F583120BCF0549E54970D705488000
:1008F300D322C0E0C0F0C083C082C0D075D000C096
:1009030000C001C002C003C004C005C006C0071276
:100913000942500E12080A40097BFF7A0C798412AF
:100923000B66C298D007D006D005D004D003D002FE
:10093300D001D000D0D0D082D083D0F0D0E0327BB1
:10094300007A00790AE4FFE59912041FE50A64249A
:100953006002C322E4FEC298C3EF6480948E500DFC
:100963000F740129F9E43AFA2098DC80FBE518B406
:1009730023147BFF7A0C7909120B667B007A0079CA
:100983000A120B66D322C322120AEB7F017E0012E6
:100993000B0F7FCCE4FBFAC2B70540E540700205BC
:1009A3003FEF1392B7753F00754006E5401540AC25
:1009B3003F7002153F4C70F3D2B7EFC313FF0BBB6D
:1009C30000010AEB64084A70CE227D087C00C2B79E
:1009D3000FBF0000D2B70FBF00000FBF0000A2B7C8
:1009E300E433C43333335480FBE9C3134BF97E0040
:1009F3007F04EF1FAA0670011E4A70F6ED1D7001F9
:100A03001CED4C70C9AF01227BFF7D047F0A8F3A36
:100A13008B3B8A3C893DE4FFEFC39D5023AB3BAA4C
:100A23003CA93D8F827583001203F2FEE53A2F2421
:100A33000AF8E6B50603D38001C34001220F80D82C
:100A4300D322014A0002080000101A2430325F54F6
:100A5300656D705858585858582300102A2430325E
:100A63005F507261645858585858582300008B3AA5
:100A73008A3B893CE4FFAB3AAA3BA93C8F8275834E
:100A8300001203F2FE740E2FF8E6B50603D38001BD
:100A9300C34001220FBF04DED322C2A58F807F0192
:100AA3007E00120AAED2A77F057E00D3EF9400EE3C
:100AB3009400400F7DC77C01DCFEDDFAEF1F70EB75
:100AC3001E80E822E4FFFEC2B6FDFCEF25E0FFEE48
:100AD30033FED2B6C2B6A2B7E43342070DBD00015E
:100AE3000CED640C4C70E422C2B77B46AF031BEFE2
:100AF30070FAD2B7FB30B7117F017E00120B0F0BD8
:100B0300EBD3940540EF7F00227F0122D3EF9400C3
:100B1300EE940040147D6E7C00ED1D70011CED4CC5
:100B230070F7EF1F70E61E80E3227598504389200B
:100B33005389EF758DFA758BFA438780D28EC299EC
:100B4300C298D2ACD2AF22C2B6E4FEEFC4131313E1
:100B5300540124FF92B4EF25E0FFC2B6D2B60EBE15
:100B630008E922C2AC1203D96010F5993099FDC28D
:100B730099740129F9E43AFA80EBD2AC22C2B6C2E5
:100B8300B5120B4A7F06DFFED2B60000C2B60000E4
:100B9300120AC7D2B5227F38120BE47F0C120BE482
:100BA3007F06120BE47F01120BE47F80020BE4E467
:100BB300FFFE120BF9120C011209CD8F3E1209CD63
:100BC300EFFEE53EFF22AB3EAA3FA9401203F2FF30
:100BD300C2A7D2A6120A9DC2A722E5492440448097
:100BE300FFC2A7C2A6120A9DC2A722EF1FAC0670BE
:100BF300011E4C70F62212098B7F440209971209D9
:100C03008B7FBE0209970A206974207265616C6C40
:100C130079206861732074686520537472696E6704
:100C2300207265766569636564200A0074686520CF
:100C33007061636B616765206973207269676874AB
:100C4300004C696774004F66665F000A72656365EE
:100C530069766564207269676874206C6564206FC7
:100C630066660A004F6E5F5F000A726563656976A8
:100C73006564207269676874206C6564206F6E0A0E
:100C8300000A206572726F72207061636B61676521
:100C9300200A0054656D703A006C696768743A0005
:0A0CA3003F065B4F666D7D077F6F13
:00000001FF
