:10000000020026759850758820758780D2AFD2ACD3
:0F001000758DF3758BF3D28ED2A080FEC10000E8
:100023000200B2787FE4F6D8FD75812002006D02EC
:100033000003E493A3F8E493A34003F68001F208DA
:10004300DFF48029E493A3F85407240CC8C333C412
:10005300540F4420C8834004F456800146F6DFE47D
:10006300800B010204081020408090001CE47E01F4
:100073009360BCA3FF543F30E509541FFEE493A3F0
:1000830060010ECF54C025E060A840B8E493A3FA02
:10009300E493A3F8E493A3C8C582C8CAC583CAF08E
:1000A300A3C8C582C8CAC583CADFE9DEE780BEC06C
:1000B300E0C0D030980DE59924FF9200A200B392DE
:0800C300A0C298D0D0D0E032B9
:00000001FF
